:020000040800F2
:10000000880500209D010008B1050008B30500081F
:10001000B7050008BB050008BF0500080000000088
:10002000000000000000000000000000C305000800
:10003000C505000800000000C7050008CB05000842
:10004000B7010008B7010008B7010008B7010008B0
:10005000B7010008B7010008B7010008B7010008A0
:10006000B7010008B7010008B7010008B701000890
:10007000B7010008B7010008B7010008B701000880
:10008000B7010008B7010008B7010008B701000870
:10009000B7010008B7010008B7010008B701000860
:1000A000B7010008B7010008B7010008B701000850
:1000B000B70100081B040008A9030008B7010008E5
:1000C000B7010008B7010008B7010008B701000830
:1000D000B7010008833500089D350008B9350008D0
:1000E000B7010008B7010008B7010008B701000810
:1000F000B7010008B7010008B7010008B701000800
:10010000B7010008B7010008B7010008B7010008EF
:10011000D5350008F1350008B7010008B70100081F
:10012000B7010008B7010008B7010008B7010008CF
:10013000B7010008B7010008B7010008B7010008BF
:10014000B7010008B7010008B7010008B7010008AF
:10015000B7010008B7010008B70100080B36000816
:10016000B7010008B7010008B7010008B70100088F
:10017000B7010008B7010008B7010008B70100087F
:10018000B7010008B7010008DFF80CD003F0E4FB6A
:1001900000480047D304000888050020064880472F
:1001A00006480047FEE7FEE7FEE7FEE7FEE7FEE75C
:1001B000FEE7FEE7FEE7FEE7B1060008890100085A
:1001C0001CB50121082002F0C9FA4FF470400090DC
:1001D00000208DF8060001208DF8040000208DF825
:1001E000070003208DF805006946104800F054FD13
:1001F0001CBD1CB50121084602F0B0FA0120009098
:1002000000208DF806008DF804008DF8070003200B
:100210008DF805006946064800F03EFD1CBD10B58E
:10022000FFF7CEFFFFF7E5FF10BD0000000C024016
:100230000000024001460846D34A126802F001025B
:1002400072B1D14A803A126802F0010242B100BF95
:100250004FF060421268002AFAD04FF060431870E5
:1002600000BF704730B504460D462046FFF7E2FF59
:1002700030BD00B58BB001F065FE0121080202F02F
:10028000C7FA002001904FF4403002900020039004
:10029000049001A801F090FE002005908DF8180050
:1002A00001208DF819000020079008900990012086
:1002B0008DF8280005A9B54801F04FFE062301225C
:1002C0001021B24801F0CFFE012001F0AAFE012169
:1002D000AE4801F088FE0BB000BD10B5AB4801F090
:1002E0001EFF00BF0221A94802F03AF80028F9D009
:1002F000A64801F050FF0446204610BD0EB501216E
:10030000042002F074FA0020ADF80000ADF80200FD
:1003100042F2CF0001900020ADF808008DF80A00ED
:1003200069469B4800F029FE0121994800F0AEFE85
:100330000EBD10B500BF0121954801F0CAFA002892
:10034000F9D00121924801F0CDFA10BD1FB51E2051
:100350008DF80C0000208DF80D0001208DF80E00A6
:100360008DF80F0003A800F0A6FB0121042002F085
:100370003EFA0020ADF80000ADF8020042F2CF00D6
:1003800001900020ADF808008DF80A006946804809
:1003900000F0F3FD012211467D4801F08FFA0121A2
:1003A0007B4800F073FE1FBD10B50121784801F0B5
:1003B0009CFA18B10121764801F0A8FA10BD1FB5CA
:1003C0001D208DF80C0000208DF80D0001208DF807
:1003D0000E008DF80F0003A800F06DFB0121022034
:1003E00002F005FA0020ADF80000ADF8020042F27C
:1003F000CF0001900020ADF808008DF80A00694692
:10040000644800F0BAFD01221146624801F056FA34
:100410000121604800F03AFE1FBD10B501215D4882
:1004200001F063FA18B101215A4801F06FFA10BDCA
:100430007047704710B500F063FA0F2000F0F7FA2C
:1004400004468721202000F0BCFA3F2C01D1002077
:1004500010BD4FF0FF30FBE770B50446282000F0D8
:10046000E6FA0546292000F0E2FA064605EB0620EA
:1004700000B220802A2000F0DAFA05462B2000F096
:10048000D6FA064605EB062000B260802C2000F06C
:10049000CEFA05462D2000F0CAFA064605EB0620E6
:1004A00000B2A08070BD00EE900AB8EE601ADFEDD9
:1004B0003A1ADFED3A0A51EE210ADFED391A80EEE1
:1004C000A11AF3EE0A0A71EE200AB0EE600A704734
:1004D000704788B000BF00BF00F0EAF8FFF79FFE4A
:1004E0000C22304906A800F08FF90D222D4904A8EE
:1004F00000F08AF90F222B4902A800F085F90E229C
:100500002849684600F080F902AB6A4604A906A8AB
:1005100000F084F91921002000F08EF93221012029
:1005200000F08AF94B21022000F086F964210320B3
:1005300000F082F9FFF70AFFFFF79BFEFFF77AFF53
:1005400019A003F01BFA1EE017A003F017FA0F48DA
:1005500001F0E5FD00BF02210C4801F001FF002879
:10056000F9D00A4801F017FEFFF7B7FE0546284606
:10057000FFF799FF002402E000F077F9641C42F2D3
:1005800010708442F8D3DFE7800E00E000200140C5
:1005900000080040000400406740533AABAD5A3FAA
:1005A0000AD7233B140C0240746573740A000000E0
:1005B000704700BFFEE700BFFEE700BFFEE700BFD9
:1005C000FEE7704770477047704710B5FFF7FCFFB4
:1005D00010BD00000CB50020019000907648006826
:1005E00040F480307449086000BF7348006800F42C
:1005F000003000900198401C0190009818B90198B3
:10060000B0F5A04FF1D16C48006800F4003010B193
:100610000120009001E0002000900098012846D1C0
:1006200065484030006840F08050634940310860C0
:100630006248006840F44040604908605E48083005
:1006400000685D49083108600846006840F40040D1
:1006500008600846006840F4A05008605848091F28
:100660000860081F006840F08070091F086000BF24
:100670005148006800F000700028F9D040F2057081
:10068000504908604C480830006820F003004A498F
:10069000083108600846006840F00200086000BFAA
:1006A00045480830006800F00C000828F8D10CBD5F
:1006B00010B54548006840F47000434908603E4862
:1006C000006840F001003C49086000203A490831C8
:1006D0000860394800683D490840374908603C488F
:1006E000091D0860081F006820F48020091F0860A9
:1006F000002031490C310860FFF76CFF4FF00060BB
:1007000031498039086010BD70B5002000220223F5
:1007100000240221284D08352D6805F00C0020B179
:10072000042806D0082834D107E02A4D2A4E356027
:1007300033E02A4D284E35602FE01F4D2D1D2D68CA
:10074000C5F380541C4D2D1D2D6805F03F0154B19B
:10075000224DB5FBF1F5184E361D3668C6F38816E6
:1007600005FB06F209E01B4DB5FBF1F5124E361DF7
:100770003668C6F3881605FB06F20F4D2D1D2D6851
:10078000C5F301456D1C6B00B2FBF3F5124E3560ED
:1007900003E0104D104E356000BF00BF064D083518
:1007A0002D68C5F303150E4E705D0B4D2D68C540C9
:1007B000094E356070BD00000038024000700040F6
:1007C00008544007003C024088ED00E0FFFFF6FEC1
:1007D000103000240024F4000000002000127A00F1
:1007E0000400002001680968037901229A4011433E
:1007F00002681160704701680968037901229A4014
:10080000914302681160704770B504460E46154664
:10081000266065602046FFF7EEFF70BD30B500240E
:10082000364D2C606C60AC60EC602C612C466061D5
:10083000A161E261236230BD642900DD642130B131
:10084000012807D0022808D003280CD108E02B4A41
:10085000516008E0294A916005E0284AD16002E031
:10086000264A116100BF00BF704710B52348406899
:1008700022490968884204D920494869FFF7B2FF34
:1008800003E01E494869FFF7B6FF1C4880681B4912
:100890000968884204D919498869FFF7A3FF03E072
:1008A00016498869FFF7A7FF1448C068134909680B
:1008B000884204D91149C869FFF794FF03E00F4942
:1008C000C869FFF798FF0D4800690C49096888421C
:1008D00004D90A49086AFFF785FF03E00749086A57
:1008E000FFF789FF054801680068401C034A106053
:1008F000642902D900201146086010BD880000203C
:1009000000B587B00121080301F082FF0020ADF897
:1009100008004FF48270ADF80A000020ADF80C001A
:10092000ADF80E00ADF810004FF40070ADF81200F5
:100930003820ADF814000020ADF8160002A9584880
:1009400001F00CF90121112001F008FFE0200090D6
:1009500002208DF804008DF8050000208DF80600B7
:100960008DF8070069464F4800F096F9082000907E
:1009700001208DF8040002208DF8050001208DF87B
:10098000070000208DF806006946474800F084F90A
:1009900005221146434800F00AFA05220621414883
:1009A00000F005FA052207213E4800F000FA082170
:1009B0003D4800F0EDF90121394801F0C9F907B0CF
:1009C00000BD70B504460D460821374800F0E2F935
:1009D00000BF0221324801F085FA0028F9D02146F3
:1009E0002F4801F036FA00BF01212D4801F07AFAB4
:1009F0000028F9D02A4801F029FA00BF022128482E
:100A000001F070FA0028F9D02946254801F021FAB2
:100A100000BF0121224801F065FA0028F9D02048E2
:100A200001F014FA0821204800F0B2F970BD10B5A9
:100A3000044608211C4800F0ADF944F0800400BFD2
:100A40000221174801F04EFA0028F9D02146144837
:100A500001F0FFF900BF0121114801F043FA00281D
:100A6000F9D00F4801F0F2F900BF02210C4801F063
:100A700039FA0028F9D00021094801F0EAF900BF4D
:100A80000121074801F02EFA0028F9D00821064874
:100A900000F07EF9024801F0D9F9C0B210BD0000A3
:100AA0000030014000000240001002403249014382
:100AB000324A1160704770B5002100230F22C478BC
:100AC0001CB32E4C246804F4E064C4F5E064C4F361
:100AD0000721C1F10404E3B20A4144789C40E1B229
:100AE0008478144021430C07210E254C057861556C
:100AF000047804F01F050124AC4005786D11AD00A9
:100B000005F1E025C5F8004109E0047804F01F056F
:100B10000124AC401B4D0678761145F8264070BD87
:100B2000194A0A400243154B1B1F1A60704739B11E
:100B3000124A121D12680243104B1B1D1A6006E078
:100B40000E4A121D126882430C4B1B1D1A6070471F
:100B5000042808D14FF0E021096941F004014FF069
:100B6000E022116107E04FF0E021096921F0040162
:100B70004FF0E022116170470000FA050CED00E033
:100B800000E400E080E100E080FFFF1F10B50446B4
:100B90009848844208D10121084601F04AFE00210C
:100BA000012001F046FE76E09348844208D10121FD
:100BB000022001F03EFE0021022001F03AFE6AE030
:100BC0008E48844208D10121042001F032FE002128
:100BD000042001F02EFE5EE08948844208D1012104
:100BE000082001F026FE0021082001F022FE52E03C
:100BF0008448844208D10121102001F01AFE00210E
:100C0000102001F016FE46E07F48844208D1012101
:100C1000202001F00EFE0021202001F00AFE3AE023
:100C20007A48844208D10121402001F002FE0021CF
:100C3000402001F0FEFD2EE07548844208D10121DC
:100C4000802001F0F6FD0021802001F0F2FD22E07D
:100C50007048844208D10121801501F0EAFD00218D
:100C6000A01501F0E6FD16E06B48844208D1012191
:100C7000401501F0DEFD0021601501F0DAFD0AE00B
:100C80006648844207D10121001501F0D2FD002100
:100C9000201501F0CEFD10BDF0B50A46002100235D
:100CA000002400BF3DE0012505FA01F3156805EABF
:100CB00003049C4234D105684F000326BE40B5436F
:100CC000056015794E00B540066835430560157915
:100CD000012D02D01579022D16D185684F0003260B
:100CE000BE40B543856055794E00B54086683543B2
:100CF0008560456801268E40B54345604568967914
:100D00008E40B6B235434560C5684F000326BE40ED
:100D1000B543C560D5794E00B540C6683543C5605A
:100D2000491C1029BFD3F0BD4FF6FF7101600021AF
:100D3000017141718171C171704708B54FF4803202
:100D40000092009A0A430092009AC261C161009A1F
:100D5000C261C2690092C269009208BD02460020C9
:100D600013690B400BB1012000E0002070470146E1
:100D7000086980B270470246002053690B400BB1EE
:100D8000012000E0002070470146486980B27047AA
:100D900001837047418370470AB1018300E04183BA
:100DA00070474161704742694A4042617047F0B5FF
:100DB000002300244D07ED0E02FA05F3CE1000F1DA
:100DC000200555F826504E07F70E0F26BE40B543B6
:100DD000CF1000F1200646F82750CE1000F1200574
:100DE00055F8265045EA0304CE1000F1200545F8D9
:100DF0002640F0BD0000024000040240000802400E
:100E0000000C024000100240001402400018024092
:100E1000001C024000200240002402400028024042
:100E200010B50446FE48844208D10121084601F06D
:100E300044FD0021012001F040FD9DE0B4F1804F10
:100E400008D10121084601F027FD0021012001F011
:100E500023FD91E0F348844208D10121022001F0F2
:100E60001BFD0021022001F017FD85E0EE488442C1
:100E700008D10121042001F00FFD0021042001F020
:100E80000BFD79E0E948844208D10121082001F0F6
:100E900003FD0021082001F0FFFC6DE0E4488442DE
:100EA00008D10121102001F0F7FC0021102001F0F1
:100EB000F3FC61E0DF48844208D10121202001F0E9
:100EC000EBFC0021202001F0E7FC55E0DA488442E9
:100ED00008D10121022001F0F0FC0021022001F0E4
:100EE000ECFC49E0D548844209D10121080401F015
:100EF000E4FC00214FF4803001F0DFFC3CE0D048FE
:100F0000844209D10121480401F0D7FC00214FF4AB
:100F1000003001F0D2FC2FE0CA48844209D10121FF
:100F2000880401F0CAFC00214FF4802001F0C5FCC8
:100F300022E0C548844208D10121402001F0ACFCE8
:100F40000021402001F0A8FC16E0C048844208D1EE
:100F50000121802001F0A0FC0021802001F09CFCF8
:100F60000AE0BB48844207D10121801501F094FCBE
:100F70000021A01501F090FC10BD00220288A84BB2
:100F800098420ED0AC4B98420BD0B0F1804F08D0B5
:100F9000A44B984205D0A44B984202D0A34B984250
:100FA00004D14FF68F731A404B881A43A04B9842D6
:100FB00007D0A04B984204D04FF6FF431A400B894C
:100FC0001A4302804B68C3620B880385944B984296
:100FD00002D0994B984201D18B7A038601238382F8
:100FE00070474FF0FF314160002101800181418055
:100FF000817270470185828270470A46002101880C
:101000004FF68F731940114301807047416270475A
:10101000C16270470146486A70470146088D7047B3
:1010200021B1028842F00202028004E002884FF6F9
:10103000FD731A400280704721B1028842F0040219
:10104000028004E002884FF6FB731A40028070476A
:1010500021B1028842F08002028004E002884FF64B
:101060007F731A400280704702884FF6F7731A4068
:10107000028002880A430280704702884FF6FF43CD
:101080001A40028002880A430280704721B1028818
:1010900042F00102028004E002884FF6FE731A401B
:1010A0000280704770B5002400220023058C4FF6A3
:1010B000FE7635400584028C8388048B4FF68F754D
:1010C0002C40B51E2C400D882C43751E2A408D895E
:1010D0002A434D882A43524DA84202D0564DA84279
:1010E00013D14FF6F7752A40CD892A434FF6FB7589
:1010F0002A408D882A434FF6FF652B404FF6FF5557
:101100002B400D8A2B434D8A2B43838004838D68AB
:101110004563028470BD70B5002400220023058C55
:101120004FF6EF7635400584028C8388048B48F6B1
:10113000FF752C404FF6FF452C400D884FF6FF768B
:1011400006EA05252C434FF6DF752A408D8906EA0D
:1011500005152A434D8806EA05152A43304DA84255
:1011600002D0354DA8421DD14FF67F752A40CD895A
:101170004FF6FF7606EA05152A434FF6BF752A405B
:101180008D8806EA05152A434FF6FF352B404FF2AE
:10119000FF752B400D8A06EA85052B434D8A06EA2A
:1011A00085052B43838004838D688563028470BD2D
:1011B00070B5002400220023058C4FF6FF663540F1
:1011C0000584028C8388848B4FF68F752C404FF6F4
:1011D000FC752C400D882C434FF6FF552A408D8915
:1011E0004FF6FF7606EA05252A434D8806EA0525CF
:1011F0002A430B4DA84202D00F4DA84238D14FF2DE
:10120000FF752A40CD894FF6FF7606EA05252A4369
:101210004FF6FF352A408D8806EA05252A4319E056
:10122000000001400004004000080040000C0040A5
:101230000010004000140040000401400040014044
:10124000004401400048014000180040001C0040DC
:10125000002000404EF6FF752B404DF6FF752B40E9
:101260000D8A06EA05152B434D8A06EA05152B4320
:10127000838084838D68C563028470BD70B500224D
:1012800000230024058C4EF6FF7635400584038C40
:101290008488828B48F6FF752A404FF6FF452A4026
:1012A0000D884FF6FF7606EA05252A434DF6FF75B1
:1012B0002B408D8906EA05352B434D8806EA053516
:1012C0002B43FE4DA84202D0FD4DA84208D14BF65B
:1012D000FF752C400D8A4FF6FF7606EA85152C43E4
:1012E000848082838D680564038470BD0021018041
:1012F0004180818081608181C1810182418270470A
:1013000070B50346002000241846183001258D4092
:10131000ACB21D8CA5431D8409B108290AD100EB8C
:10132000610005684FF68F76354005600568154306
:1013300005600FE00D1FC5F34E052844056848F60B
:10134000FF763540056005684FF6FF7606EA02260F
:101350003543056070BD4163704781637047C16369
:101360007047016470470A460021018B4FF68F7366
:1013700019401143018370470A460021018B48F64A
:10138000FF7319404FF6FF7303EA022319430183E9
:1013900070470A460021818B4FF68F731940114325
:1013A000818370470A460021818B48F6FF731940FC
:1013B0004FF6FF7303EA02231943818370470A46FD
:1013C0000021018B4FF6F7731940114301837047D9
:1013D0000A460021018B4FF2FF7319404FF6FF734D
:1013E00003EA02231943018370470A460021818BD7
:1013F0004FF6F77319401143818370470A46002165
:10140000818B4FF2FF7319404FF6FF7303EA0223FB
:101410001943818370470A460021018B4FF6FB7305
:1014200019401143018370470A460021018B4FF692
:10143000FF3319404FF6FF7303EA02231943018378
:1014400070470A460021818B4FF6FB731940114308
:10145000818370470A460021818B4FF6FF33194084
:101460004FF6FF7303EA02231943818370470A464C
:101470000021018B4FF67F731940114301837047A0
:101480000A460021018BC1F30E014FF6FF7303EAF8
:1014900002231943018370470A460021818B4FF6CE
:1014A0007F7319401143818370470A460021818B65
:1014B000C1F30E014FF6FF7303EA02231943818340
:1014C00070470A460021018C4FF6FD731940114305
:1014D000018470470A460021018C4FF6F7731940CA
:1014E0001143018470470A460021018C4FF6DF73D7
:1014F00019404FF6FF7303EA021319430184704742
:101500000A460021018C4FF67F7319404FF6FF7396
:1015100003EA02131943018470470A460021018C33
:101520004FF6FF5319404FF6FF7303EA02231943A6
:10153000018470470A460021018C4FF2FF73194065
:101540004FF6FF7303EA02231943018470470A46EA
:101550000021018C4DF6FF7319404FF6FF7303EA2B
:10156000023319430184704730B5002301248C40B5
:10157000A3B2048C9C430484048C02FA01F5ADB23E
:101580002C43048430BD30B5002304248C40A3B226
:10159000048C9C430484048C02FA01F5ADB22C4304
:1015A000048430BD828B4FF2FF331A408283828BDA
:1015B0004FF6FF7303EA01231A4382837047F0B5A5
:1015C0000C461546002100220026078C4EF6FF7CB3
:1015D00007EA0C070784818B028C4FF6FF7707EA36
:1015E000043640F6FF4739404FF6FF7707EA0527F4
:1015F00039434FF6FF7707EA0337394345F6FF775C
:101600003A4046F480573A4381830284F0BD828B8E
:101610004FF6F3731A408283828B0A4382837047AA
:10162000F0B50C461546002100220026078C4FF627
:10163000FF6C07EA0C070784818B028C4FF6FF775B
:1016400007EA04264FF60C7739404FF6FF7707EA92
:1016500003172F4339434FF2FF573A4046F4807740
:101660003A4381830284F0BD028B4FF2FF331A406C
:101670000283028B4FF6FF7303EA01231A430283AE
:101680007047F0B50C461546002100220026078C55
:101690004FF6EF7C07EA0C070784018B028C4FF6AC
:1016A000FF7707EA041640F6FF4739404FF6FF7709
:1016B00007EA033739434FF6FF7703E000000140A4
:1016C0000004014007EA052739434FF65F773A40A7
:1016D00046F010073A4301830284F0BD028B4FF6B7
:1016E000F3731A400283028B0A4302837047F0B5FA
:1016F0000C46154600210022068C4FF6FE773E4030
:101700000684018B028C4FF60C7631407E1C06EA73
:1017100003162E4331434FF6F576324044F001066E
:10172000324301830284F0BD70B505460C46208823
:1017300050B92389A28861882846FFF7D8FFE1883D
:101740002846FFF7CBFF25E0208804280AD123890B
:10175000A28861882846FFF794FFE1882846FFF7B2
:1017600083FF17E0208808280AD12389A28861888E
:101770002846FFF755FFE1882846FFF748FF09E0B4
:101780002389A28861882846FFF719FFE188284647
:10179000FFF708FF70BD0021018041800121818099
:1017A0000021C180018170472DE9F04105460C46BA
:1017B00000260127608808B9022600E00026A088DC
:1017C000012801D1022700E001272088A0B9238940
:1017D000A28861882846FFF78AFFE1882846FFF73C
:1017E0007DFF23893A4631462846FFF74AFFE188C4
:1017F0002846FFF739FF13E02389A288618828462D
:10180000FFF73FFFE1882846FFF72EFF23893A467E
:1018100031462846FFF76BFFE1882846FFF75EFF59
:10182000BDE8F0810146486B70470146886B704700
:101830000146C86B70470146086C70470A884B88A0
:101840001A438B881A43CB881A430B891A434B8956
:101850001A438B891A43A0F8442070470021018065
:1018600041808180C180018141818181704731B196
:10187000B0F8442042F40042A0F8442005E0B0F85B
:101880004420C2F30E02A0F84420704721B18288A0
:1018900042F00402828004E082884FF6FB731A4013
:1018A0008280704721B1828842F00102828004E088
:1018B00082884FF6FE731A40828070471AB183897E
:1018C0000B43838102E083898B438381704781824C
:1018D000704702460020138A0B400BB1012000E044
:1018E00000207047CA430282704730B5024600208C
:1018F00000230024158A05EA0103958905EA0104FD
:1019000013B10CB1012000E0002030BDCA430282B7
:10191000704741EA0203A0F8483070471AB1838942
:101920000B43838102E083898B438381704721B11C
:10193000828842F00802828004E082884FF6F773C2
:101940001A408280704701894FF6F8721140018178
:1019500070470A46002101894FF68F7319401143E1
:101960000181704730B504460D4629462046FFF7F1
:10197000F0FF208940F00700208130BD2DE9F041C3
:1019800004460D4616461F46602D06D13B460122F1
:1019900031462046FFF775FE05E03B460122314601
:1019A0002046FFF7A4FE29462046FFF7D2FF2089F4
:1019B00040F007002081BDE8F08130B50C460021E1
:1019C0000189C9B24FF6FF7505EA03251543254382
:1019D0002943018130BD2DE9F04105460E461746E9
:1019E0009846002443463A4631462846FFF7E5FF2D
:1019F0002C894FF6F870044044F007044FF68F70BE
:101A0000044044F070042C81BDE8F081F0B5044638
:101A10000D4616461F463B46324629462046FFF7EE
:101A2000CCFF208940F480402081F0BD82884FF6B1
:101A30008F731A40828082880A43828070470289AD
:101A40004FF6F8731A40028102890A4302817047F7
:101A500002894FF67F731A40028102890A4302818C
:101A60007047F0B50C4615461E46002100220023A3
:101A70000189028B038C4FF6F877394021434FF6EA
:101A8000FC473A4040F201173A434FF6DD773B40BE
:101A90004FF6FF7707EA06172F433B430181028386
:101AA0000384F0BD21B1828842F08002828004E08C
:101AB00082884FF67F731A4082807047A0F85010DA
:101AC0007047000010B50446FB48844208D101214C
:101AD000801400F0F2FE0021A01400F0EEFE3CE0C5
:101AE000F648844208D10121001400F0D5FE0021FF
:101AF000201400F0D1FE30E0F148844208D10121E9
:101B0000C01300F0C9FE0021E01300F0C5FE24E080
:101B1000EC48844208D10121401400F0CEFE00219F
:101B2000601400F0CAFE18E0E748844209D10121A0
:101B3000080500F0C2FE00214FF4801000F0BDFE49
:101B40000BE0E248844208D10121480500F0B5FECF
:101B500000214FF4001000F0B0FE10BD10B50022BF
:101B6000028802F441520B884C8823438C8823431B
:101B7000CC8823430C8923434C8923438C892343FA
:101B8000CC8923431A430280838B4FF2FF74234096
:101B900083830B8A038210BD2DE9F04F00250223B9
:101BA00000244FF0010900220026002794469046A9
:101BB000B0F81CA04FF2400B0AEA0B0AA0F81CA0D8
:101BC0004FF0020AA0F820A0858BD1F808A0BAF146
:101BD000020F01D100BF82E0B1F804A0BAF1000FFA
:101BE00002D14FF0010901E04FF00209DFF8E0A255
:101BF000DAF800A00AF4000ABAF1000F09D0DFF801
:101C0000D0A2DAF800A02AF4000ADFF8C4B2CBF8B8
:101C100000A0DFF8BCA20AF17C0ADAF800A0CAF33F
:101C2000881CDFF8ACA20AF17C0ADAF800A0CAF33B
:101C30000278DFF89CA2AAF1040ADAF800A00AF000
:101C40003F07DFF88CA2AAF1040ADAF800A00AF430
:101C5000800ABAF5800F08D1DFF878A2BAFBF7FA4C
:101C60000AFB0CFABAFBF8F607E0DFF86CA2BAFB45
:101C7000F7FA0AFB0CFABAFBF8F6B1F806A0BAF5C7
:101C8000007F0ED14FEA162A0AEB8A0A4FEA4A0A67
:101C9000D1F808B0BAFBFBFA0AF1050A1FFA8AF27A
:101CA0000FE04FEA491AB6FBFAFA0AEB8A0A4FEA42
:101CB0004A0AD1F808B0BAFBFBFA0AF1050A1FFA82
:101CC0008AF24FF00A0AB2FBFAF202F00104A2EB28
:101CD000040ACAF34F034FF6FF7A0AEA0424022BE0
:101CE00001DBFF2B01DD02230024B1F806A04AEA44
:101CF000040A4AEA030AA0F820A0B1F804A0B1F847
:101D00000CB04AEA0B0AB1F802B04AEA0B0AB1F881
:101D100000B04AEA0B0A4AF4006A4AEA05058583DC
:101D2000BDE8F08F0021018041808180C180018168
:101D300041818181C1810721018270470021018099
:101D400041808180C18002218160002181817047B2
:101D500021B1028842F04002028004E002884FF67E
:101D6000BF731A400280704721B1828B42F48062B7
:101D7000828304E0828B4FF6FF331A4082837047E0
:101D800002884FF2FF731A40028002880A430280E1
:101D90007047B1F5804F04D1028842F4804202803E
:101DA00004E002884BF6FF731A40028070474FF63A
:101DB000FF62914204D0028842F48072028004E003
:101DC00002884FF6FF631A400280704721B1828873
:101DD00042F00402828004E082884FF6FB731A40CE
:101DE0008280704721B1828842F01002828004E034
:101DF00082884FF6EF731A408280704730B5002218
:101E00000023848B4FF240052C40848302240484F9
:101E1000828B0C88B4F5007F01D00C8814B94FF484
:101E2000807308E00C88B4F5407F03D00C88B4F5CB
:101E3000807F00D100238C888D892C434D882C43D2
:101E40001C4344F400642243828330BD01468889E8
:101E500070478181704721B1028842F400520280AC
:101E600004E002884DF6FF731A4002807047018833
:101E700041F480510180704702460020012901D0C1
:101E8000108B00E0908A70470146088A70471AB1AB
:101E900083880B43838002E083888B438380704771
:101EA00030B5002400230C110125A540ABB2AAB126
:101EB00085881D43858014E00030014000380040D3
:101EC000003C0040003401400050014000540140FB
:101ED0000838024000127A000024F40085889D43EF
:101EE000858030BD0246002013890B400BB10120D4
:101EF00000E000207047CA4302817047F0B50246F7
:101F0000002000240023002501F00F070126BE4019
:101F1000B4B20B1101269E40B3B2968806EA0305BF
:101F20001689264016B10DB1012000E00020F0BD59
:101F300010B5002201F00F040123A3409AB2D3434D
:101F4000038110BD10B50121080200F0B6FC00218C
:101F50004FF4807000F0B1FC10BD30B50246002097
:101F600000235068F84C20400D790C6844EA0524A1
:101F7000204350609068F54C2040D1E903542C4335
:101F80008D682C434D7944EA450420439060D06A23
:101F900020F470000C7D641EE4B2234340EA035039
:101FA000D06230BD00210160017141718160C1606A
:101FB00001610121017570470021E54A1168E54A78
:101FC0001140D0E900231A4383681A43C3681A43B7
:101FD0001143E14AC2F804137047002101604160D7
:101FE0008160C160704721B1826842F00102826065
:101FF00003E0826822F00102826070470A460021F5
:102000004168D64B1940114341607047416282627A
:1020100070470A460021416821F01F0111434160C9
:10202000704738B1CA49096841F40001CA4AC2F888
:10203000041306E0C649096821F40001C64AC2F843
:102040000413704738B1C249096841F48001C24A9B
:10205000C2F8041306E0BE49096821F48001BE4AB3
:10206000C2F804137047F0B504460D460020002165
:10207000092D11DDE068A5F10A0606EB46070726E3
:1020800006FA07F18843A5F10A0606EB460603FAAD
:1020900006F10843E0600CE0206905EB45070726E0
:1020A00006FA07F1884305EB450603FA06F10843F3
:1020B0002061072A0FDA606B561E06EB86071F2683
:1020C00006FA07F18843561E06EB860605FA06F166
:1020D0000843606322E00D2A0FDA206BD61F06EB5F
:1020E00086071F2606FA07F18843D61F06EB8606E9
:1020F00005FA06F10843206310E0E06AA2F10D063C
:1021000006EB86071F2606FA07F18843A2F10D06A3
:1021100006EB860605FA06F10843E062F0BD816829
:1021200041F0804181607047014600208A6802F0DA
:1021300080420AB1012000E00020704721B182688E
:1021400042F48062826003E0826822F480628260EE
:10215000704721B1826842F00202826003E0826827
:1021600022F002028260704710B50A460021002367
:10217000416821F46041531E41EA4331416010BD82
:1021800021B1426842F40062426003E0426822F4F6
:102190000062426070470146C86C80B270476C486C
:1021A000001D0068704721B1826842F4807282602D
:1021B00003E0826822F480728260704721B18268F5
:1021C00042F40072826003E0826822F4007282604E
:1021D000704738B15E49096841F400515E4AC2F85F
:1021E000041306E05A49096821F400515A4AC2F81A
:1021F00004137047F0B5044615460020002200265F
:10220000092911DDE068A1F10A0707EB470C072750
:1022100007FA0CF29043A1F10A0707EB470703FA0C
:1022200007F21043E0600CE0206901EB410C072746
:1022300007FA0CF2904301EB410703FA07F210434F
:102240002061A06BC0F30156EF1C06F1010CA7EB57
:102250000C0707EB870C1F2707FA0CF29043EF1CC3
:1022600006F1010CA7EB0C0707EB870701FA07F251
:102270001043A063F0BD10B50A4600210023816B16
:1022800021F44011531E41EA0351816310BD08B58A
:10229000002300930090009B0B440093009B1A6066
:1022A00008BD0A460021816821F470211143816034
:1022B00070470A460021816821F440111143816072
:1022C0007047816841F480018160704701460020B9
:1022D0008A6802F480020AB1012000E00020704701
:1022E00021B1426842F48062426003E0426822F415
:1022F00080624260704721B1426842F4805242607D
:1023000003E0426822F480524260704708B50246FA
:1023100000200090009201F12800009B18440090DA
:102320000098006880B208BD10B50B460021D9B2F4
:10233000012404FA01F11AB144680C43446002E03C
:1023400044688C43446010BDFFFEFFFCFDF7FFC0F6
:1023500004230140E030FCFF00200140FFFD3FFF6F
:102360000246002013680B400BB1012000E0002062
:102370007047CA430260704770B5024600200023D0
:1023800000240B12556801268E4005EA06041568E4
:102390001D4015B10CB1012000E0002070BD0022ED
:1023A0000A12D34303607047F948006840F0010007
:1023B000F74908600020F64908310860F4480068D1
:1023C000F4490840F2490860F348091D0860F348E1
:1023D000EF4984310860F0481038091D0860EC4866
:1023E000006820F48020EA4908600020E8490C31A8
:1023F0000860E7498C31086070470021E44A921C6C
:10240000117011460870704710B501460022002374
:1024100000204A11012A02D1DD4C236808E0022A7B
:1024200003D1DB4C7034236802E0D94C7434236848
:1024300001F01F02012494401C400CB1012000E077
:10244000002010BD38B5002000900024002500BFFA
:102450003120FFF7D9FF05460098401C00900098F6
:10246000B0F5A04F01D0002DF2D03120FFF7CCFF06
:1024700008B1012400E00024204638BD01460020B8
:10248000C34A106820F0F80040EAC10010607047AD
:10249000C349086070470021BD4A70321170117045
:1024A000012802D004280AD104E00121B84A703280
:1024B000117005E00521B64A7032117000E000BFCE
:1024C00000BF7047B7490860704770B5049C41EA87
:1024D00082150126C6EB530645EA0645054345EA43
:1024E0000465AB4E361D356070BDAD49086670475A
:1024F000820142EA0172A64B84331A607047A849F0
:102500008866704710B5830143EA016343EA0273AA
:102510009F4C8834236010BDA14908677047A049CB
:10252000C864704702460020994B0833186820F0B1
:10253000EC6042EA01031843954B0833186070477A
:1025400002460020924B0833186820F0784042EA97
:10255000010318438E4B0833186070470146002072
:102560008B4A0832106820F003000843106070475F
:1025700087480830006800F00C00704701460020D2
:10258000834A0832106820F0F0000843106070475A
:10259000014600207E4A0832106820F4E0500843CB
:1025A0001060704701460020794A0832106820F414
:1025B000604040EAC10010607047F0B50021002281
:1025C0000024022500260223714F08373F6807F0D8
:1025D0000C0121B1042905D0082937D105E0724F3B
:1025E000076036E0714F076033E0694F3F1D3F6879
:1025F000C7F38056664F3F1D3F6807F03F036EB13B
:102600006A4FB7FBF3F7DFF888C10CF1040CDCF874
:1026100000C0CCF3881C07FB0CF40CE0624FB7FB46
:10262000F3F7DFF86CC10CF1040CDCF800C0CCF35C
:10263000881C07FB0CF4564F3F1D3F68C7F301474A
:102640007F1C7D00B4FBF5F7076002E0564F076082
:1026500000BF00BF4E4F08373F6807F0F00109097F
:10266000534F7A5C0768D7404760494F08373F6847
:1026700007F4E051890A4E4F7A5C4768D74087607B
:10268000434F08373F6807F46041490B484F7A5C75
:102690004768D740C760F0BD002100F44072B2F532
:1026A000407F0AD13A4A0832116821F4F811414AB0
:1026B00002401143364A08321160354A70321268BE
:1026C000C0F30B031A43324B70331A60704735491D
:1026D00044390860704733494039086070473649CB
:1026E0000860704701460020294A8C32106820F4A7
:1026F000401008431060704701460020244A8C3285
:10270000106820F440000843106070470146002024
:102710001F4A8C32106820F01F004A1E10431C4ACA
:102720008C321060704701460020194A8C321068C4
:1027300020F4F8504A1E40EA0220154A8C321060FC
:10274000704701460020124A8C32106820F4403055
:1027500008431060704719490860704739B10C4A46
:102760003032126802430A4B30331A6006E0084ADE
:10277000303212688243064B30331A607047F9B129
:10278000034A343212680243014B34331A601CE0AE
:1027900000380240FFFFF6EA10300024003000202D
:1027A00000004742800E47420024F40000127A00E5
:1027B00014000020FFFCFF0F5C014742E01147427C
:1027C0008F4A126882438E4B1A60704739B18C4A27
:1027D000121D126802438A4B1B1D1A6006E0884ACC
:1027E000121D12688243864B1B1D1A60704739B157
:1027F000834A0C3212680243814B0C331A6006E0A4
:102800007F4A0C32126882437D4B0C331A6070474A
:1028100039B17B4A103212680243794B10331A6087
:1028200006E0774A103212688243754B10331A6003
:10283000704739B1724A243A12680243704B243B04
:102840001A6006E06E4A243A126882436C4B243BBD
:102850001A60704739B16A4A203A12680243684BDD
:10286000203B1A6006E0664A203A12688243644BB5
:10287000203B1A60704739B1614A1C3A1268024322
:102880005F4B1C3B1A6006E05D4A1C3A12688243AB
:102890005B4B1C3B1A60704739B1594A143A1268B5
:1028A0000243574B143B1A6006E0554A143A12682B
:1028B0008243534B143B1A60704739B1504A103A67
:1028C000126802434E4B103B1A6006E04C4A103A25
:1028D000126882434A4B103B1A60704739B1484A2C
:1028E0001C3212680243464B1C331A6006E0444A0D
:1028F0001C3212688243424B1C331A60704739B154
:102900003F4A2032126802433D4B20331A6006E0F2
:102910003B4A203212688243394B20331A60704799
:1029200039B1374A243212680243354B24331A60D6
:1029300006E0334A243212688243314B24331A6052
:10294000704739B12E4A2C32126802432C4B2C337B
:102950001A6006E02A4A2C3212688243284B2C3334
:102960001A60704739B1264A303212680243244B4C
:1029700030331A6006E0224A303212688243204B1C
:1029800030331A607047012808D11D493C3109686D
:1029900041F008011A4A3C32116007E018493C3105
:1029A000096821F00801164A3C321160704739B1BC
:1029B000134A273A12780243114B273B1A7006E05C
:1029C0000F4A273A127882430D4B273B1A70704703
:1029D0000B484030006840F0807009494031086081
:1029E000704701460020064A283A12680A400AB198
:1029F000012000E000207047014926390870704727
:102A00003438024010B50446FA48844208D1012106
:102A10001020FFF752FF00211020FFF74EFF57E074
:102A2000F548844209D101214804FFF735FF002110
:102A30004FF40030FFF730FF4AE0F048844209D1FC
:102A400001218804FFF728FF00214FF48020FFF7C1
:102A500023FF3DE0EA48844209D10121C804FFF781
:102A60001BFF00214FF40020FFF716FF30E0E54880
:102A7000844209D101210805FFF70EFF00214FF420
:102A80008010FFF709FF23E0DF48844208D10121CD
:102A90002020FFF712FF00212020FFF70EFF17E094
:102AA000DA48844209D101218807FFF7F5FE0021A9
:102AB0004FF08040FFF7F0FE0AE0D548844207D18E
:102AC00001214005FFF7E8FE00216005FFF7E4FE65
:102AD00010BD2DE9FF4705460E460024A14600BF64
:102AE000A046B08900B100BF2C8A24F44054F0887D
:102AF00004432C82AC8941F20C608443B088318954
:102B00000843718908430443AC81AC8A24F44074BF
:102B1000B0890443AC826846FFF74FFDB548854253
:102B200002D0B948854202D1DDF80C9001E0DDF811
:102B30000890A88900F4004040B109EBC90000EBFF
:102B4000091031684900B0FBF1F707E009EBC90053
:102B500000EB091031688900B0FBF1F76420B7FB86
:102B6000F0F004012009642101FB1078A88900F429
:102B7000004040B1322000EBC800B0FBF1F000F0A3
:102B80000700044308E0322000EB08106421B0FB8A
:102B9000F1F000F00F0004432C81BDE8FF874FF4F3
:102BA0001651016000218180C18001810C21418189
:102BB00000218181704710B502460020108A20F460
:102BC00070600B884C8823438C882343CC88234334
:102BD0001843108210BD0021018041808180C18096
:102BE000704721B1828942F40052828104E08289D7
:102BF0004DF6FF731A4082817047028B02F47F42C8
:102C00000283028B0A430283704721B1828942F416
:102C10000042828103E08289C2F30E028281704702
:102C200021B1828A42F40062828204E0828A4FF2F9
:102C3000FF731A4082827047C1F308028280704796
:102C400001468888C0F308007047028A4FF6F07387
:102C50001A400282028A0A430282704721B18289A5
:102C600042F00202828104E082894FF6FD731A402D
:102C70008281704782894FF2FF731A408281828974
:102C80000A4382817047028A4FF6DF731A4002823C
:102C9000028A0A430282704721B1028A42F48042CA
:102CA000028204E0028A4BF6FF731A4002827047E8
:102CB000818941F001018181704721B1828A42F00E
:102CC0000802828204E0828A4FF6F7731A408282F9
:102CD0007047028BD2B20283028B42EA0122028346
:102CE000704721B1828A42F02002828204E0828A07
:102CF0004FF6DF731A408282704721B1828A42F018
:102D00001002828204E0828A4FF6EF731A408282B8
:102D10007047828A4FF6FB731A408282828A0A4386
:102D20008282704721B1828A42F00202828204E0EC
:102D3000828A4FF6FD731A40828270471AB1838AE5
:102D40000B43838202E0838A8B4383827047F0B512
:102D50000346002400260025002040F66A17B942E9
:102D600000D100BF1846C1F3421401F01F0601272D
:102D700007FA06F5012C01D10C3004E0022C01D138
:102D8000103000E014301AB107682F43076002E0EA
:102D90000768AF430760F0BD02460020B1F5007F31
:102DA00000D100BF13880B400BB1012000E00020D0
:102DB000704701F40072B2F5007F00D100BFCA4332
:102DC0000280704770B502460024002300250020D1
:102DD00040F66A16B14200D100BFC1F3421501F0BE
:102DE0001F03012606FA03F3012D13D19689334000
:102DF00017E000000010014000440040004800407F
:102E0000004C004000500040001401400078004099
:102E1000007C0040022D02D1168A334001E0968AE0
:102E200033400C12012606FA04F41688344013B11C
:102E30000CB1012000E0002070BD10B5002200237D
:102E400040F66A14A14200D100BF0A120124944046
:102E5000A3B2DC43048010BD0146FE4A914200D17A
:102E60000020FD4A914200D10120FC4A914200D14C
:102E70000220FB4A914200D10420FA4A914200D13B
:102E80000520F94A914200D10620704770471CB5D1
:102E900004464CB90820032101230022CDE900108B
:102EA000C021F24800F05AFC012C0AD1082003216D
:102EB00001230022CDE900104FF48441EC4800F0DA
:102EC0004DFC032C03D10821E748FFF7DFFF1CBDB1
:102ED0001CB504469CB90820032101230022CDE93A
:102EE00000104102E14800F039FC082003210123D1
:102EF0000022CDE900100421DE4800F02FFC032C55
:102F000003D10821D748FFF7C1FF1CBD1CB50446FB
:102F100044B90820032101230022CDE90010D6483E
:102F200000F01CFC012C09D1082003210123002200
:102F3000CDE900108902CD4800F010FC032C03D12C
:102F40000821C748FFF7A2FF1CBD1CB504464CB9B9
:102F50000720032101230022CDE900108902C74880
:102F600000F0FCFB012C09D10720032101230022E2
:102F7000CDE900108902BD4800F0F0FB022C09D118
:102F80000720032101230022CDE900100902B948DE
:102F900000F0E4FB032C03D10721B048FFF776FFD4
:102FA0001CBD1CB504464CB9072003210123002297
:102FB000CDE900100C21B04800F0D0FB012C09D164
:102FC0000720032101230022CDE900106021A94838
:102FD00000F0C4FB032C03D107219F48FFF756FFE5
:102FE0001CBD1CB504464CB9072003210123002257
:102FF000CDE900104902A04800F0B0FB012C09D136
:103000000720032101230022CDE90010C0219B48A5
:1030100000F0A4FB032C03D107218E48FFF736FFF5
:103020001CBD01468B4A914200D195488A4A914283
:1030300000D19448894A914200D19348884A9142EC
:1030400000D19248874A914200D19148864A9142E4
:1030500000D1904870472DE9F04F87B004460D46E7
:1030600016461F46DDE911ABDDF840902046FFF71C
:10307000D8FF80460396774884420BD18648006883
:1030800040F01000844908602846FFF7AAFF252079
:103090008DF80800704884420DD17F48001F0068F9
:1030A00040F400307C49091F08602846FFF779FF8B
:1030B00026208DF80800694884420DD17648001F0B
:1030C000006840F480207449091F08602846FFF713
:1030D0003CFF27208DF80800614884420DD16E48DE
:1030E000001F006840F400206B49091F0860284653
:1030F000FFF70CFF34208DF808005A4884420DD1A8
:103100006548001F006840F480106349091F08608B
:103110002846FFF7DDFE35208DF80800524884422E
:103120000BD15D48006840F020005B4908602846EC
:10313000FFF7ADFE47208DF808002046FFF762FC40
:1031400001208DF80B0006208DF809002046FFF7BE
:1031500083FE8DF80A0002A8FDF7ADFCADF81870EB
:103160001FFA89F0ADF816001FFA8AF0ADF81400C6
:103170001FFA8BF0ADF81200139880B2ADF8100072
:10318000002088F80C0000BF40F6FF70019000BFDF
:103190000198411E01910028FAD100BF03A92046E1
:1031A000FFF797FCA08940F02000A081012088F85B
:1031B0000C00A08940F40050A08107B0BDE8F08F5A
:1031C0007FB504460D461646224884420BD10020A6
:1031D0000C23CDE900300290034632462946039085
:1031E0002046FFF738FF1C4884420BD100200C23F7
:1031F000CDE900300290034632462946039020462E
:10320000FFF729FF154884420BD100200C23CDE99C
:103210000030029003463246294603902046FFF7CD
:103220001AFF0F4884420BD100200C23CDE9003057
:10323000029003463246294603902046FFF70BFFD3
:103240000848844230D100200C23CDE900300290A0
:10325000034623E0001001400044004000480040C5
:10326000004C0040005000400014014000080240A3
:1032700000180240000C024000000240000402401E
:1032800024000020340000204400002054000020CE
:103290006400002074000020443802403246294671
:1032A00003902046FFF7D7FEDF4884420BD1002071
:1032B0000C23CDE9003002900346324629460390A4
:1032C0002046FFF7C8FE7FBD2DE9FF4104460D46AD
:1032D00016461F46D54884420BD100200C23CDE969
:1032E000003002903B463246294603902046FFF7C5
:1032F000B2FECF4884420BD100200C23CDE9003030
:1033000002903B463246294603902046FFF7A3FE33
:10331000C84884420BD100200C23CDE90030029034
:103320003B463246294603902046FFF794FEC248AA
:1033300084420BD100200C23CDE9003002903B46A3
:103340003246294603902046FFF785FEBB4884425B
:103350000BD100200C23CDE9003002903B463246D1
:10336000294603902046FFF776FEAF4884420BD1F2
:1033700000200C23CDE9003002903B46324629461E
:1033800003902046FFF767FEBDE8FF8130B5044695
:1033900000252046FFF745FE0346D888002803DCB9
:1033A00018895989884211D058899988884201D151
:1033B0000020588159891868405C45B25889401CE2
:1033C0005881D88810B1D888401ED880E8B230BD66
:1033D000F0B507460D463846FFF723FE0346DE8864
:1033E0005C890DE09888A04200D100241868005D37
:1033F000A84201D10120F0BD601C84B2701E86B2CB
:10340000002EEFDC0020F6E72DE9F04180460E4665
:10341000174600244046FFF704FE0546E88840B101
:10342000697B4046FFF7D4FF30B9E888A988884215
:1034300002D00020BDE8F0810AE04046FFF7A6FF79
:103440003055305D697B884200D104E0601C84B255
:10345000781EA042F1DC00BF0021601C80B204464F
:1034600031542046E6E710B504462046FFF7D9FD63
:103470000346D88828B918895989884201D1012082
:1034800010BD0020FCE710B504462046FFF7C9FD3B
:103490000346D8889988884201D1012010BD0020B8
:1034A000FCE710B504462046FFF7BBFD03460020AD
:1034B000D8801881588110BD30B504460B4620468F
:1034C000FFF7AFFD05466B7330BD30B503460C46C4
:1034D0001846FFF7A6FD0546287B00B930BD12E06F
:1034E00000BF00BF188800F080000028FAD000BF9D
:1034F00014F8010B988000BF00BF188800F080000E
:103500000028FAD000BF20780028E9D100BFE5E705
:10351000F0B503460D4616461846FFF782FD0746EE
:10352000387B00B9F0BD002413E000BF00BF18884D
:1035300000F080000028FAD000BF285D988000BF0E
:1035400000BF188800F080000028FAD000BF601C7F
:1035500084B2B442E9DB00BFE4E7C28883889A42C0
:103560000EDA028983889A4201D1002202810389FE
:103570000268D1540289521C0281C288521CC28046
:10358000704700B52948008800F0200028B127487E
:103590008088C1B22A48FFF7E0FF00BD00B524488B
:1035A000008800F0200030B12148001D0088C1B221
:1035B0002448FFF7D2FF00BD00B51E48008800F088
:1035C000200030B11B48001D0088C1B21E48FFF723
:1035D000C4FF00BD00B51848008800F0200030B1DD
:1035E0001548001D0088C1B21848FFF7B6FF00BD9E
:1035F00000B51248008800F0200028B10F488088EC
:10360000C1B21348FFF7A9FF00BD00B50648008806
:1036100000F0200030B10448001D0088C1B20D4800
:10362000FFF79BFF00BD00000014014000100140A7
:103630000044004000480040004C00400050004062
:10364000240000203400002044000020540000200A
:10365000640000207400002001464FF40030081A76
:10366000C0F38F2070472DE9F04304460E461546FF
:10367000DDE907892046FFF7EFFFC7B2002243E0EC
:1036800001209040304000B93CE0B14830F81700CC
:10369000012191400843AE4921F81700E0684FEA44
:1036A000420C032101FA0CF18843510008FA01F1A0
:1036B0000843E06020684FEA420C032101FA0CF154
:1036C0008843510005FA01F108432060012D01D023
:1036D000022D16D161680120904080B221EA0000DD
:1036E00003FA02F189B208436060A0684FEA420C15
:1036F000032101FA0CF18843510009FA01F1084352
:10370000A06000BF501CC2B2102AB9DBBDE8F08334
:1037100000B502461046FFF79FFF012101FA00F0B5
:103720008C49096808438B49086000BD2DE9FC43BA
:1037300005460C4616461F46DDE909890CB9BDE869
:10374000FC832846FFF7E4FF3B46324621462846E5
:10375000CDE90089FFF787FF00BFF0E72DE9FC47BF
:1037600005460E4617469846DDE90A9A0EB9BDE8A9
:10377000FC872846FFF7CCFF00241AE00120A04078
:10378000304000B914E0E10805F1200050F82100B4
:103790006107CA0E0F21914088436107C90E0AFADA
:1037A00001F10843E20805F1200141F8220000BFC1
:1037B000641C102CE2D33B46022231462846CDE958
:1037C0000089FFF750FF00BFD1E770B503460C46F4
:1037D0001846FFF741FFC5B2002214E001209040D7
:1037E000204070B1186856000321B14008431860AA
:1037F000574830F81500012191408843544921F879
:103800001500501CC2B2102AE8DB70BD30B502466C
:1038100000200BE0012383400B402BB113684500CF
:103820000324AC40A3431360431CD8B21028F1DB3F
:1038300030BD30B5024600200FE0012383400B402D
:103840004BB1136845000324AC40A3434500012459
:10385000AC4023431360431CD8B21028EDDB30BDCD
:1038600030B5024600200BE0012383400B402BB112
:10387000136845000324AC4023431360431CD8B2B3
:103880001028F1DB30BD30B50246002011E00123E5
:1038900083400B4003B90AE0136845000324AC40A1
:1038A000A34345000224AC402343136000BF431CE4
:1038B000D8B21028EBDB30BD70B50346002011E014
:1038C000012484400C4004B90AE0DC68460003256A
:1038D000B540AC43450002FA05F52C43DC6000BF5F
:1038E000441CE0B21028EBDB70BD41F48032C261B1
:1038F000C161C261C369C36970470146002002E02B
:10390000421C90B249100129FADC704700B502460A
:103910001046FFF7A1FE012181400E480068884350
:103920000C49086000BD00B502461046FFF794FE42
:10393000074931F8100000BD00B502461046FFF7F8
:103940008BFE034931F81000C04380B200BD000077
:103950006C01002030380240064C074D06E0E0685C
:1039600040F0010394E8070098471034AC42F6D3C6
:10397000FCF70EFCCC390008EC390008014A02497A
:1039800000F013B8650200088400002002E008C8B7
:10399000121F08C1002AFAD170477047002001E0C9
:1039A00001C1121F002AFBD170472DE9F0411646D4
:1039B0000F460446002503E03946B047641C6D1CE1
:1039C00020780028F8D12846BDE8F081EC390008BD
:1039D00000000020880000008C390008743A0008BC
:1039E00088000020000500009C390008007A030AC6
:1039F000000000000000000001020304060708099F
:103A00000000000001020304010203040607080984
:103A1000AC0000202000000000000000000A0000B0
:103A2000CC0000202000000000000000000A000080
:103A3000EC0000202000000000000000000A000050
:103A40000C0100202000000000000000000A00001F
:103A50002C0100202000000000000000000A0000EF
:103A60004C0100202000000000000000000A0000BF
:043A70000000000052
:040000050800018965
:00000001FF
