:020000040800F2
:10000000680400209D010008F9140008FB14000892
:10001000FD140008FF14000801150008000000008E
:1000200000000000000000000000000003150008B0
:100030000515000800000000071500080B15000852
:10004000B7010008B7010008B7010008B7010008B0
:10005000B7010008B7010008B7010008B7010008A0
:10006000B7010008B7010008B7010008B701000890
:10007000B7010008B7010008B7010008B701000880
:10008000B7010008B7010008B7010008B701000870
:10009000B7010008B7010008B7010008B701000860
:1000A000B7010008B7010008B7010008B701000850
:1000B000B7010008B701000831140008B7010008B3
:1000C000B7010008B7010008B7010008B701000830
:1000D000B7010008B7010008B7010008B701000820
:1000E000B7010008B7010008B7010008B701000810
:1000F000B7010008B7010008B7010008B701000800
:10010000B7010008B7010008B7010008B7010008EF
:10011000B7010008B7010008B7010008B7010008DF
:10012000B7010008B7010008B7010008B7010008CF
:10013000B7010008B7010008B7010008B7010008BF
:10014000B7010008B7010008B7010008B7010008AF
:10015000B7010008B7010008B7010008B70100089F
:10016000B7010008B7010008B7010008B70100088F
:10017000B7010008B7010008B7010008B70100087F
:10018000B7010008B7010008DFF80CD001F080FAD1
:10019000004800479D140008680400200648804776
:1001A00006480047FEE7FEE7FEE7FEE7FEE7FEE75C
:1001B000FEE7FEE7FEE7FEE7B71500088901000845
:1001C0002849084328490860704730B50F23C27892
:1001D00001780125FAB1244A126801F1E02102F404
:1001E000E062C2F5E062C2F30722C2F10404D34028
:1001F0004278A24084781C401443220181F80024F4
:10020000007800F01F018D404009800000F1E020DF
:10021000C0F8005130BD01F01F0085404809800042
:1002200000F1E020C0F8805130BD104A1140014378
:100230000D48001F016070470B4A121D002911680C
:1002400001D0014300E08143116070474FF0E0218D
:100250000428086903D020F004000861704740F0CA
:100260000400FAE70000FA050CED00E080FFFF1F34
:10027000F848016841F001010160F64A00210832A6
:1002800011600268F44B1A400260031DF34A1A60C1
:10029000F04BF34A84331A60F04A103A1B1D1A607F
:1002A000026822F480220260EA480C300160181DC6
:1002B00001607047E7490022891C0A700870704786
:1002C00002460020510901290CD002290CD0E14935
:1002D0007431096802F01F02012393400B4200D0E1
:1002E00001207047DB49F4E7DA497031F1E718B5CE
:1002F00000204FF4A04400903120FFF7E1FF009967
:10030000491C0091A14201D00028F5D03120FFF70F
:10031000D7FF002800D0012018BDCE4A116821F077
:10032000F80141EAC00010607047CE49086070478C
:10033000C849002270310A700A70012802D00428CE
:1003400001D1052008707047C7490860704741EA2D
:1003500082115A0810B5C54B029C03EB02421143AF
:10036000014341EA0460BB49091D086010BDBD4955
:1003700008667047800140EA0170B6498431086020
:100380007047B84988667047800140EA0160B1490A
:1003900040EA0270883108607047B24908677047C8
:1003A000B049C8647047AB4B08331A68084322F061
:1003B000EC62104318607047A64B08331A68084374
:1003C00022F07842104318607047A24A0832116840
:1003D00021F003010143116070479E480830006816
:1003E00000F00C0070479B4A0832116821F0F001C0
:1003F000014311607047974A0832116821F4E051B7
:10040000014311607047934A0832116821F460413A
:1004100041EAC0001060704770B58E4B0833196810
:10042000934C11F00C0104D06610042903D0082964
:1004300003D004601BE0066019E0864A121D1168B3
:10044000C1F38055116801F03F0115B1B6FBF1F120
:1004500001E0B4FBF1F114681268C4F3881461433D
:10046000C2F30142521C5200B1FBF2F10160196863
:100470000F2202EA11117F4A545C0168E140416099
:100480001C68072505EA9424145D21FA04F48460AD
:100490001B6805EA5333D25CD140C16070BDC0F324
:1004A0000121032908D16B4B08331968724A21F4E2
:1004B000F81102400A431A60664970310A68C0F3B5
:1004C0000B0002430A60704767494439086070476F
:1004D00065494039086070476249C1F85C0170475E
:1004E0005C4A8C32116821F440110143116070475D
:1004F000584A8C32116821F4400101431160704761
:10050000544A8C321168401E21F01F0101431160D2
:100510007047504A8C3211686FF0FF0321F4F85194
:1005200003EB00200843106070474A4A8C32116880
:1005300021F440310143116070475049C1F8E00196
:100540007047444A30320029116801D0014300E06D
:100550008143116070473F4A34320029116801D04D
:10056000014300E08143116070473A4A3832002964
:10057000116801D0014300E0814311607047354AA2
:1005800040320029116801D0014300E0814311602D
:100590007047304A44320029116801D0014300E01D
:1005A0008143116070472B4A10320029116801D035
:1005B000014300E0814311607047264A143200294C
:1005C000116801D0014300E0814311607047214A66
:1005D00018320029116801D0014300E08143116005
:1005E00070471C4A20320029116801D0014300E005
:1005F000814311607047174A24320029116801D0E5
:10060000014300E0814311607047124A50320029D3
:10061000116801D0014300E08143116070470D4A29
:1006200054320029116801D0014300E08143116078
:100630007047084A58320029116801D0014300E090
:10064000814311607047034A60320029116817D056
:10065000014316E000380240FFFFF6EA10300024A4
:100660000030002000004742800E47420000FFFF9C
:100670000024F40000000020FFFCFF0F00104742A0
:10068000814311607047194A0029116801D0014364
:1006900000E081431160704714490C31012808685B
:1006A00003D020F008000860704740F00800FAE727
:1006B0000E4A573A0029117801D0014300E08143E6
:1006C0001170704709481030016841F08071016075
:1006D00070470146054A0020583A12680A4200D085
:1006E000012070470149563908707047643802404C
:1006F000774910B5884206D101210846FFF753FF1C
:10070000002101205BE07349884206D101210220CB
:10071000FFF749FF0021022051E06F49884206D1CE
:1007200001210420FFF73FFF0021042047E06B492F
:10073000884206D101210820FFF735FF002108205B
:100740003DE06749884206D101211020FFF72BFFC9
:100750000021102033E06349884206D10121202086
:10076000FFF721FF0021202029E05F49884206D1C0
:1007700001214020FFF717FF002140201FE05B49C7
:10078000884206D101218020FFF70DFF0021802043
:1007900015E05749884202D1012184150AE05549E4
:1007A000884202D10121441504E0534988420AD10C
:1007B000012104152046FFF7F6FE00212046BDE882
:1007C0001040FFF7F0BE10BDF0B5002201274FF03A
:1007D000030C0B6807FA02F52B40AB422CD10668DC
:1007E00053000CFA03F4A64306600E79D0F800E03B
:1007F0009E4046EA0E0606600E79012E01D0022EBA
:1008000012D18668A64386604E79D0F808E09E40F3
:1008100046EA0E0686604668AE43466045688E79B5
:100820009640B6B235434560C568A543C560CC79EE
:100830009C40C3681C43C460521C102AC9D3F0BD3D
:100840004FF6FF7101600021017141718171C17129
:10085000704708B541F480320092C261C1610099CD
:10086000C161C169C069009008BD024600201269DB
:100870000A4200D001207047006980B270470246EA
:10088000002052690A4200D001207047406980B2BE
:10089000704701837047418370470AB101837047F5
:1008A000418370474161704742694A4042617047E5
:1008B0004B07DB0E9A40C90810B500EB8100016AB6
:1008C0000F249C40A1430162016A1143016210BDE3
:1008D000000002400004024000080240000C0240F8
:1008E000001002400014024000180240001C0240A8
:1008F000002002400024024000280240FE4910B5BA
:10090000884206D101210846FFF775FE002101202B
:100910005BE0B0F1804F09D0F84988420DD1012148
:100920000220FFF75EFE0021022070E00121084650
:10093000FFF757FE0021012069E0F149884206D106
:1009400001210420FFF74DFE002104205FE0ED4966
:10095000884206D101210820FFF743FE002108202C
:1009600055E0E949884206D101211020FFF739FE00
:10097000002110204BE0E549884206D101212020CA
:10098000FFF72FFE0021202041E0E149884206D1F7
:1009900001210220FFF72FFE0021022015E0DD4992
:1009A000884202D101210C040AE0DB49884202D1CD
:1009B00001214C0404E0D94988420AD101218C0468
:1009C0002046FFF718FE00212046BDE81040FFF743
:1009D00012BED349884206D101214020FFF701FE13
:1009E0000021402013E0CF49884206D10121802018
:1009F000FFF7F7FD0021802009E0CB4988420AD1AA
:100A0000841501212046FFF7ECFD00212046BDE8BA
:100A10001040FFF7E6BD10BD30B50288B64CBC4DA6
:100A2000A0420DD0A8420BD0B0F1804F08D0B34BFC
:100A3000984205D0B24B984202D0B24B984203D1B3
:100A400022F070034A881A43AF4B984206D0AF4B4E
:100A5000984203D022F440730A891A4302804A68FC
:100A6000C2620A880285A04201D0A84201D1897AD7
:100A700001860121818230BD4FF0FF3141600021AC
:100A800001800181418081727047018582827047B7
:100A9000028822F070020A43028070474162704768
:100AA000C1627047406A7047008D70470029018815
:100AB00002D041F0020101E021F002010180704703
:100AC0000029018802D041F0040101E021F0040175
:100AD000018070470029018802D041F0800101E0C7
:100AE00021F0800101807047028822F00802028014
:100AF00002880A4302807047028822F44072028012
:100B000002880A43028070470029018802D041F020
:100B1000010101E021F001010180704730B5028C34
:100B200022F001020284028C8388048B22F00202EC
:100B300024F073050C882C438D8915434A882A4379
:100B40006D4DA84202D0724DA8420DD122F0080589
:100B5000CA8923F440732A4322F004058A882A4371
:100B60000D8A1D434B8A2B4383800483896841632C
:100B7000028430BD70B5028C22F010020284028C17
:100B80008388048B0D8824F4E6464FF6FF7404EA4C
:100B9000052535438E8922F0200204EA0616164305
:100BA0004A8804EA02123243534EB04202D0584EF1
:100BB000B04215D122F08006CA8923F4406304EACA
:100BC0000212324322F040068A8804EA02123243BB
:100BD0000E8A04EA86061E434B8A04EA83033343E3
:100BE0008380058389688163028470BD70B5028C3F
:100BF00022F480720284028C8388848B0D8824F016
:100C0000730425438E894FF6FF7422F4007204EAC0
:100C1000062616434A8804EA02223243364EB04280
:100C200002D03B4EB04215D122F40066CA8923F4AB
:100C3000405304EA0222324322F480668A8804EA9E
:100C4000022232430E8A04EA06161E434B8A04EA45
:100C500003133343838085838968C163028470BD35
:100C600070B5028C22F480520284058C8288838BBA
:100C70000C8823F4E6464FF6FF7303EA042434435A
:100C800025F400568D8903EA053535434E8803EA7D
:100C900006362E43184DA84202D01D4DA84205D15C
:100CA00022F480450A8A03EA82122A4382808483DE
:100CB00089680164068470BD0021018041808180C3
:100CC00081608181C18101824182704730B50124F8
:100CD000058C00F118038C40A543058431B3082925
:100CE0002CD0091FC1F34E001844016848F6FF7369
:100CF0001940016001681AE0000001400004004052
:100D000000080040000C00400010004000140040AB
:100D100000040140004001400044014000480140FF
:100D200000180040001C00400020004006E04FF684
:100D3000FF7303EA02221143016030BD03EB51004F
:100D400001684FF68F73194001600168F3E7416352
:100D5000704781637047C163704701647047028BBD
:100D600022F070020A4302837047028B4FF6FF7332
:100D700022F4E04203EA0121114301837047828B90
:100D800022F070020A4382837047828B4FF6FF7312
:100D900022F4E04203EA0121114381837047028B70
:100DA00022F008020A4302837047028B4FF6FF735A
:100DB00022F4006203EA0121114301837047828B10
:100DC00022F008020A4382837047828B4FF6FF733A
:100DD00022F4006203EA0121114381837047028BF0
:100DE00022F004020A4302837047028B4FF6FF731E
:100DF00022F4806203EA0121114301837047828B50
:100E000022F004020A4382837047828B4FF6FF73FD
:100E100022F4806203EA0121114381837047028B2F
:100E200022F080020A4302837047028B4FF6FF7361
:100E3000C2F30E0203EA0121114301837047828B42
:100E400022F080020A4382837047828B4FF6FF7341
:100E5000C2F30E0203EA0121114381837047028C21
:100E600022F002020A4302847047028C22F0080238
:100E70000A4302847047028C4FF6FF7322F020026F
:100E800003EA0111114301847047028C4FF6FF738E
:100E900022F0800203EA0111114301847047028CA1
:100EA0004FF6FF7322F4007203EA0121114301841B
:100EB0007047028C4FF6FF7322F4006203EA0121AF
:100EC000114301847047028C4FF6FF7322F40052E5
:100ED00003EA013111430184704710B50123048CEA
:100EE0008B409C430484038C8A401343038410BDCD
:100EF00010B50423048C8B409C430484038C8A40EB
:100F00001343038410BD828B22F440628283828B60
:100F10004FF6FF7303EA01210A4382837047828BF5
:100F200022F00C028283828B0A4382837047028BF9
:100F300022F440620283028B4FF6FF7303EA012121
:100F40000A4302837047F0B5048C24F01004048433
:100F5000078B068C4FF6FF7404EA011527F47347DC
:100F600004EA0331394304EA02220A4326F0A001CD
:100F7000294341F0100102830184F0BD028B22F06D
:100F80000C020283028B0A43028370472DE9F04171
:100F90000C460E884988A288238905460EB3042E84
:100FA00026D0082E2E8C4FF6FF7028D026F48056BF
:100FB0002E84AF8B2E8C00EA022200EA013127F446
:100FC00073473A4300EA0330104326F420420A43B1
:100FD00042F48051A8832984E1882846BDE8F04185
:100FE00091E700F062F9E1882846BDE8F041C5E7E5
:100FF000FFF7A9FFE1882846BDE8F04197E726F40E
:1010000080762E84AF8B2E8C00EA012100EA03103B
:10101000104327F0F307384326F420620A4342F4D2
:101020008071A8832984E1882846BDE8F04176E7ED
:1010300000210180418001228280C18001817047AE
:101040002DE9F0410C46002649880746012501B9E3
:101050000226A288012A00D102252088238900289F
:10106000384610D0FFF76FFFE1883846FFF75FFF83
:1010700023892A463146384600F017F9E188384678
:10108000BDE8F0417AE700F010F9E1883846FFF753
:1010900075FF23892A4631463846FFF754FFE18819
:1010A0003846BDE8F04142E7406B7047806B7047BF
:1010B000C06B7047006C704710B50A884B88CC88AD
:1010C0001A438B8823431A430B891A434B89898916
:1010D0001A430A43A0F8442010BD0021018041803A
:1010E0008180C1800181418181817047002930F870
:1010F000441F02D041F4004101E0C1F30E01018020
:1011000070470029818802D041F0040101E021F0FC
:101110000401818070470029818802D041F00101DB
:1011200001E021F0010181807047002A828901D00D
:101130000A4300E08A4382817047818270470246F9
:101140000020128A0A4200D001207047C943018260
:10115000704702460020138A92890B4202EA01027C
:1011600002D0002A00D001207047C9430182704795
:101170001143A0F848107047002A828901D00A4321
:1011800000E08A43828170470029818802D041F0C3
:10119000080101E021F0080181807047018921F0F8
:1011A000070101817047028922F070020A4302811F
:1011B000704700B50346FFF7F6FF188940F00700B7
:1011C000188100BD70B516460D46602904464FF0E3
:1011D000010231460AD000F068F829462046FFF7A0
:1011E000E2FF208940F00700208170BDFFF7ABFED1
:1011F000F3E730B504894FF6FF7505EA032313437F
:10120000E4B20B432343038130BD10B50446FFF71E
:10121000F0FF208940F07700208110BD10B5044612
:10122000FFF7E7FF208940F48040208110BD8288CD
:1012300022F07002828082880A438280704702898D
:1012400022F00702028102890A4302817047028963
:1012500022F08002028102890A430281704770B540
:101260000589048B068C25F007050D434FF6FC41DC
:101270000C4040F201110C434FF6FF7101EA0311DB
:1012800026F022061143314305810483018470BD99
:101290000029818802D041F0800101E021F0800125
:1012A00081807047A0F85010704770B5048C24F00E
:1012B00001040484058B048C4FF6FF7606EA0313C1
:1012C000134325F0F3052B4324F00A020A4342F0AE
:1012D00001010383018470BD1CB501210820FFF7C3
:1012E00030F94FF47040009000208DF80600012185
:1012F0008DF804108DF8070003208DF8050069466D
:101300000F48FFF761FA1CBD1CB501210846FFF725
:1013100018F90120009000208DF806008DF80400D7
:101320008DF8070003208DF8050069460548FFF792
:101330004BFA1CBD10B5FFF7CFFFBDE81040E3E747
:10134000000C02400000024001680A680379012095
:10135000984082430A607047C0E90012F4E70168D0
:101360000A6803790120984002430A607047000030
:101370001FB51E208DF80C0000248DF80D400120B3
:101380008DF80E008DF80F0003A8FEF71EFF012157
:101390000420FFF7F4F8ADF80040ADF80840ADF8D0
:1013A00002408DF80A4042F2CF003A4C0190694663
:1013B0002046FFF731FB012211462046FFF7B5FE1C
:1013C00001212046FFF7A0FB1FBD10B5324C20467F
:1013D000D4E9001240698A4202D9FFF7C0FF01E058
:1013E000FFF7B2FF2168A0688842A06902D9FFF721
:1013F000B6FF01E0FFF7A8FF2168E0688842E069D6
:1014000002D9FFF7ACFF01E0FFF79EFF21682069DA
:101410008842206A02D9FFF7A2FF01E0FFF794FF9C
:101420002068411C2160642801D90020206010BD83
:1014300010B5184C01212046FFF78BFE002806D07E
:1014400001212046FFF791FEBDE81040BDE710BD29
:1014500030B4114C002520C420C444F8085B44F883
:10146000045C20C484E80F0030BC81E7642900D903
:101470006421094A38B1012807D0022807D003287F
:1014800000D1116170475160704791607047D16021
:1014900070470000000800404400002000F08BF876
:1014A000FFF748FF124C0C2221461248FFF754FF69
:1014B00010480D2221460830FFF74EFF0D480E223E
:1014C00021461830FFF748FF0A480F222146103006
:1014D000FFF742FF074B0748103303F10802A2F160
:1014E0001001FFF7B5FF28210020FFF7BFFFFEE73F
:1014F000140C0240100000207047FEE7FEE7FEE7F4
:10150000FEE7704770477047704710B5FFF7FCFF64
:1015100010BD00000CB500225449009201920868E9
:1015200040F4803008604FF4A043086800F40030B5
:1015300001900098401C0090019810B900989842C2
:10154000F3D10868800334D501200190474840302A
:10155000026842F0805202604548026842F440420C
:1015600002604248083002680260026842F40042A9
:101570000260026842F4A0520260031F3D4A1A60F2
:101580000A6842F080720A600A689201FCD53A4902
:1015900040F205720A60016821F0030101600168F0
:1015A00041F0020101600168C1F381010229FAD111
:1015B0000CBD01920CBD314810B5016841F47001B9
:1015C00001602A48016841F001010160274A0021B9
:1015D0000832116002682A4B1A400260031D294A32
:1015E0001A60026822F48022026020480C300160F8
:1015F000FFF790FF21494FF000608039086010BD6F
:1016000070B51A4D083528681F4B204910F00C00A2
:1016100004D05E10042803D0082803D00B601BE020
:101620000E6019E0114A121D1068C0F38054106852
:1016300000F03F0014B1B6FBF0F001E0B3FBF0F0B6
:1016400013681268C3F388135843C2F30142521C53
:101650005200B0FBF2F0086028680C4AC0F3031097
:10166000121D105C0A68C2400A6070BD003802405A
:101670000070004008544007003C024088ED00E044
:10168000FFFFF6FE103000240024F400300000209C
:10169000064C074D06E0E06840F0010394E80700BF
:1016A00098471034AC42F6D3FEF772FDD41600080A
:1016B000F416000802E008C8121F08C1002AFAD177
:1016C00070477047002001E001C1121F002AFBD1C2
:1016D00070470000F41600080000002044000000DD
:1016E000B416000838170008440000202404000045
:1016F000C4160008000000000102030401020304F4
:1017000006070809000000000000000000000000BB
:1017100000000000000000000000000000000000C9
:1017200000000000007A030A000000000000000032
:08173000010203040607080989
:040000050800018965
:00000001FF
