:020000040800F2
:10000000280400209D0100087509000877090008F0
:10001000790900087B0900087D090008000000003C
:100020000000000000000000000000007F09000840
:100030008109000800000000830900088709000802
:10004000B7010008B7010008B7010008B7010008B0
:10005000B7010008B7010008B7010008B7010008A0
:10006000B7010008B7010008B7010008B701000890
:10007000B7010008B7010008B7010008B701000880
:10008000B7010008B7010008B7010008B701000870
:10009000B7010008B7010008B7010008B701000860
:1000A000B7010008B7010008B7010008B701000850
:1000B000B7010008B7010008B7010008B701000840
:1000C000B7010008B7010008B7010008B701000830
:1000D000B7010008B7010008B7010008B701000820
:1000E000B7010008B7010008B7010008B701000810
:1000F000B7010008B7010008B7010008B701000800
:10010000B7010008B7010008B7010008B7010008EF
:10011000B7010008B7010008B7010008B7010008DF
:10012000B7010008B7010008B7010008B7010008CF
:10013000B7010008B7010008B7010008B7010008BF
:10014000B7010008B7010008B7010008B7010008AF
:10015000B7010008B7010008B7010008B70100089F
:10016000B7010008B7010008B7010008B70100088F
:10017000B7010008B7010008B7010008B70100087F
:10018000B7010008B7010008DFF80CD000F0BEFC92
:10019000004800470109000828040020064880475D
:1001A00006480047FEE7FEE7FEE7FEE7FEE7FEE75C
:1001B000FEE7FEE7FEE7FEE7330A000889010008D4
:1001C000F848016841F001010160F64A0021083257
:1001D00011600268F44B1A400260031DF34A1A6072
:1001E000F04BF34A84331A60F04A103A1B1D1A6030
:1001F000026822F480220260EA480C300160181D77
:1002000001607047E7490022891C0A700870704736
:1002100002460020510901290CD002290CD0E149E5
:100220007431096802F01F02012393400B4200D091
:1002300001207047DB49F4E7DA497031F1E718B57E
:1002400000204FF4A04400903120FFF7E1FF009917
:10025000491C0091A14201D00028F5D03120FFF7C0
:10026000D7FF002800D0012018BDCE4A116821F028
:10027000F80141EAC00010607047CE49086070473D
:10028000C849002270310A700A70012802D004287F
:1002900001D1052008707047C7490860704741EADE
:1002A00082115A0810B5C54B029C03EB0242114360
:1002B000014341EA0460BB49091D086010BDBD4906
:1002C00008667047800140EA0170B64984310860D1
:1002D0007047B84988667047800140EA0160B149BB
:1002E00040EA0270883108607047B2490867704779
:1002F000B049C8647047AB4B08331A68084322F012
:10030000EC62104318607047A64B08331A68084324
:1003100022F07842104318607047A24A08321168F0
:1003200021F003010143116070479E4808300068C6
:1003300000F00C0070479B4A0832116821F0F00170
:10034000014311607047974A0832116821F4E05167
:10035000014311607047934A0832116821F46041EB
:1003600041EAC0001060704770B58E4B08331968C1
:10037000934C11F00C0104D06610042903D0082915
:1003800003D004601BE0066019E0864A121D116864
:10039000C1F38055116801F03F0115B1B6FBF1F1D1
:1003A00001E0B4FBF1F114681268C4F388146143EE
:1003B000C2F30142521C5200B1FBF2F10160196814
:1003C0000F2202EA11117F4A545C0168E14041604A
:1003D0001C68072505EA9424145D21FA04F484605E
:1003E0001B6805EA5333D25CD140C16070BDC0F3D5
:1003F0000121032908D16B4B08331968724A21F493
:10040000F81102400A431A60664970310A68C0F365
:100410000B0002430A60704767494439086070471F
:1004200065494039086070476249C1F85C0170470E
:100430005C4A8C32116821F440110143116070470D
:10044000584A8C32116821F4400101431160704711
:10045000544A8C321168401E21F01F010143116083
:100460007047504A8C3211686FF0FF0321F4F85145
:1004700003EB00200843106070474A4A8C32116831
:1004800021F440310143116070475049C1F8E00147
:100490007047444A30320029116801D0014300E01E
:1004A0008143116070473F4A34320029116801D0FE
:1004B000014300E08143116070473A4A3832002915
:1004C000116801D0014300E0814311607047354A53
:1004D00040320029116801D0014300E081431160DE
:1004E0007047304A44320029116801D0014300E0CE
:1004F0008143116070472B4A10320029116801D0E6
:10050000014300E0814311607047264A14320029FC
:10051000116801D0014300E0814311607047214A16
:1005200018320029116801D0014300E081431160B5
:1005300070471C4A20320029116801D0014300E0B5
:10054000814311607047174A24320029116801D095
:10055000014300E0814311607047124A5032002984
:10056000116801D0014300E08143116070470D4ADA
:1005700054320029116801D0014300E08143116029
:100580007047084A58320029116801D0014300E041
:10059000814311607047034A60320029116817D007
:1005A000014316E000380240FFFFF6EA1030002455
:1005B0000030002000004742800E47420000FFFF4D
:1005C0000024F40000000020FFFCFF0F0010474251
:1005D000814311607047194A0029116801D0014315
:1005E00000E081431160704714490C31012808680C
:1005F00003D020F008000860704740F00800FAE7D8
:100600000E4A573A0029117801D0014300E0814396
:100610001170704709481030016841F08071016025
:1006200070470146054A0020583A12680A4200D035
:1006300001207047014956390870704764380240FC
:10064000774910B5884206D101210846FFF753FFCC
:10065000002101205BE07349884206D1012102207C
:10066000FFF749FF0021022051E06F49884206D17F
:1006700001210420FFF73FFF0021042047E06B49E0
:10068000884206D101210820FFF735FF002108200C
:100690003DE06749884206D101211020FFF72BFF7A
:1006A0000021102033E06349884206D10121202037
:1006B000FFF721FF0021202029E05F49884206D171
:1006C00001214020FFF717FF002140201FE05B4978
:1006D000884206D101218020FFF70DFF00218020F4
:1006E00015E05749884202D1012184150AE0554995
:1006F000884202D10121441504E0534988420AD1BD
:10070000012104152046FFF7F6FE00212046BDE832
:100710001040FFF7F0BE10BDF0B5002201274FF0EA
:10072000030C0B6807FA02F52B40AB422CD106688C
:1007300053000CFA03F4A64306600E79D0F800E0EB
:100740009E4046EA0E0606600E79012E01D0022E6A
:1007500012D18668A64386604E79D0F808E09E40A4
:1007600046EA0E0686604668AE43466045688E7966
:100770009640B6B235434560C568A543C560CC799F
:100780009C40C3681C43C460521C102AC9D3F0BDEE
:100790004FF6FF7101600021017141718171C171DA
:1007A000704708B541F480320092C261C16100997E
:1007B000C161C169C069009008BD0246002012698C
:1007C0000A4200D001207047006980B2704702469B
:1007D000002052690A4200D001207047406980B26F
:1007E000704701837047418370470AB101837047A6
:1007F000418370474161704742694A404261704796
:100800004B07DB0E9A40C90810B500EB8100016A66
:100810000F249C40A1430162016A1143016210BD93
:10082000000002400004024000080240000C0240A8
:10083000001002400014024000180240001C024058
:100840000020024000240240002802401CB5012183
:100850000820FFF71EFE4FF47040009000208DF836
:10086000060001218DF804108DF8070003208DF893
:10087000050069460F48FFF74FFF1CBD1CB501215D
:100880000846FFF706FE0120009000208DF80600C4
:100890008DF804008DF8070003208DF805006946E7
:1008A0000548FFF739FF1CBD10B5FFF7CFFFBDE8C6
:1008B0001040E3E7000C02400000024001680A68B3
:1008C00003790120984082430A607047C0E9001212
:1008D000F4E701680A6803790120984002430A603E
:1008E000704708B544F6206206E00021009B491CD1
:1008F0005B1E00939142F9D3401EF6D208BD000062
:1009000088B000F096F8FFF7CFFF194C0C22214673
:100910006846FFF7DBFF0D22214602A8FFF7D6FF4E
:100920000E22214606A8FFF7D1FF0F22214604A878
:10093000FFF7CCFF6846FFF7CCFF6846FFF7BEFF26
:1009400006A8FFF7C6FF04A8FFF7C3FF02A8FFF73A
:10095000C0FF4FF47A746846FFF7BBFF2046FFF7ED
:10096000C0FF6846FFF7AAFF2046FFF7BAFFF2E78D
:10097000140C02407047FEE7FEE7FEE7FEE7704713
:1009800070477047704710B5FFF7FCFF10BD0000BF
:100990000CB50022544900920192086840F480305E
:1009A00008604FF4A043086800F4003001900098FC
:1009B000401C0090019810B900989842F3D1086843
:1009C000800334D50120019047484030026842F04E
:1009D000805202604548026842F440420260424848
:1009E000083002680260026842F400420260026855
:1009F00042F4A0520260031F3D4A1A600A6842F0A6
:100A000080720A600A689201FCD53A4940F2057288
:100A10000A60016821F003010160016841F00201F0
:100A200001600168C1F381010229FAD10CBD019274
:100A30000CBD314810B5016841F4700101602A48CD
:100A4000016841F001010160274A0021083211606C
:100A500002682A4B1A400260031D294A1A60026884
:100A600022F48022026020480C300160FFF790FFE2
:100A700021494FF000608039086010BD70B51A4DF3
:100A8000083528681F4B204910F00C0004D05E1078
:100A9000042803D0082803D00B601BE00E6019E087
:100AA000114A121D1068C0F38054106800F03F0016
:100AB00014B1B6FBF0F001E0B3FBF0F0136812687C
:100AC000C3F388135843C2F30142521C5200B0FBD7
:100AD000F2F0086028680C4AC0F30310121D105C85
:100AE0000A68C2400A6070BD0038024000700040D1
:100AF00008544007003C024088ED00E0FFFFF6FE8E
:100B0000103000240024F40010000020064C074D93
:100B100006E0E06840F0010394E8070098471034CD
:100B2000AC42F6D3FFF734FB500B0008700B000803
:100B300002E008C8121F08C1002AFAD170477047A6
:100B4000002001E001C1121F002AFBD17047000004
:100B5000700B00080000002024000000300B00088B
:100B6000940B00082400002004040000400B00083F
:100B70000000000001020304010203040607080943
:100B8000007A030A000000000000000001020304D4
:040B90000607080943
:040000050800018965
:00000001FF
